{
  "_format": "hh-sol-artifact-1",
  "contractName": "CampaignFactory",
  "sourceName": "contracts/Campaign.sol",
  "abi": [
    {
      "anonymous": false,
      "inputs": [
        {
          "indexed": false,
          "internalType": "string",
          "name": "title",
          "type": "string"
        },
        {
          "indexed": false,
          "internalType": "uint256",
          "name": "requiredAmount",
          "type": "uint256"
        },
        {
          "indexed": true,
          "internalType": "address",
          "name": "owner",
          "type": "address"
        },
        {
          "indexed": false,
          "internalType": "address",
          "name": "campaignAddress",
          "type": "address"
        },
        {
          "indexed": false,
          "internalType": "string",
          "name": "imgURI",
          "type": "string"
        },
        {
          "indexed": true,
          "internalType": "uint256",
          "name": "timestamp",
          "type": "uint256"
        },
        {
          "indexed": true,
          "internalType": "string",
          "name": "category",
          "type": "string"
        }
      ],
      "name": "campaignCreated",
      "type": "event"
    },
    {
      "inputs": [
        {
          "internalType": "string",
          "name": "campaignTitle",
          "type": "string"
        },
        {
          "internalType": "uint256",
          "name": "requiredCampaignAmount",
          "type": "uint256"
        },
        {
          "internalType": "string",
          "name": "imgURI",
          "type": "string"
        },
        {
          "internalType": "string",
          "name": "category",
          "type": "string"
        },
        {
          "internalType": "string",
          "name": "storyURI",
          "type": "string"
        }
      ],
      "name": "createCampaign",
      "outputs": [],
      "stateMutability": "nonpayable",
      "type": "function"
    },
    {
      "inputs": [
        {
          "internalType": "uint256",
          "name": "",
          "type": "uint256"
        }
      ],
      "name": "deployedCampaigns",
      "outputs": [
        {
          "internalType": "address",
          "name": "",
          "type": "address"
        }
      ],
      "stateMutability": "view",
      "type": "function"
    }
  ],
  "bytecode": "0x608060405234801561001057600080fd5b5061132c806100206000396000f3fe60806040523480156200001157600080fd5b50600436106200003a5760003560e01c8063339d50a5146200003f578063c658857d1462000075575b600080fd5b6200005d600480360381019062000057919062000371565b62000095565b6040516200006c919062000450565b60405180910390f35b6200009360048036038101906200008d91906200028b565b620000d5565b005b60008181548110620000a657600080fd5b906000526020600020016000915054906101000a900473ffffffffffffffffffffffffffffffffffffffff1681565b60008585858433604051620000ea90620001f4565b620000fa959493929190620004c8565b604051809103906000f08015801562000117573d6000803e3d6000fd5b5090506000819080600181540180825580915050600190039060005260206000200160009091909190916101000a81548173ffffffffffffffffffffffffffffffffffffffff021916908373ffffffffffffffffffffffffffffffffffffffff160217905550826040516200018d919062000437565b6040518091039020423373ffffffffffffffffffffffffffffffffffffffff167ff932d905365211c7f19fda44bcb55b1adbe63365f7cdae1c35ddcb3e38ed1d468989868a604051620001e494939291906200046d565b60405180910390a4505050505050565b610c2380620006d483390190565b600062000219620002138462000563565b6200053a565b9050828152602081018484840111156200023257600080fd5b6200023f848285620005fe565b509392505050565b600082601f8301126200025957600080fd5b81356200026b84826020860162000202565b91505092915050565b6000813590506200028581620006b9565b92915050565b600080600080600060a08688031215620002a457600080fd5b600086013567ffffffffffffffff811115620002bf57600080fd5b620002cd8882890162000247565b9550506020620002e08882890162000274565b945050604086013567ffffffffffffffff811115620002fe57600080fd5b6200030c8882890162000247565b935050606086013567ffffffffffffffff8111156200032a57600080fd5b620003388882890162000247565b925050608086013567ffffffffffffffff8111156200035657600080fd5b620003648882890162000247565b9150509295509295909350565b6000602082840312156200038457600080fd5b6000620003948482850162000274565b91505092915050565b620003a881620005c0565b82525050565b6000620003bb8262000599565b620003c78185620005a4565b9350620003d98185602086016200060d565b620003e481620006a8565b840191505092915050565b6000620003fc8262000599565b620004088185620005b5565b93506200041a8185602086016200060d565b80840191505092915050565b6200043181620005f4565b82525050565b6000620004458284620003ef565b915081905092915050565b60006020820190506200046760008301846200039d565b92915050565b60006080820190508181036000830152620004898187620003ae565b90506200049a602083018662000426565b620004a960408301856200039d565b8181036060830152620004bd8184620003ae565b905095945050505050565b600060a0820190508181036000830152620004e48188620003ae565b9050620004f5602083018762000426565b8181036040830152620005098186620003ae565b905081810360608301526200051f8185620003ae565b90506200053060808301846200039d565b9695505050505050565b60006200054662000559565b905062000554828262000643565b919050565b6000604051905090565b600067ffffffffffffffff82111562000581576200058062000679565b5b6200058c82620006a8565b9050602081019050919050565b600081519050919050565b600082825260208201905092915050565b600081905092915050565b6000620005cd82620005d4565b9050919050565b600073ffffffffffffffffffffffffffffffffffffffff82169050919050565b6000819050919050565b82818337600083830152505050565b60005b838110156200062d57808201518184015260208101905062000610565b838111156200063d576000848401525b50505050565b6200064e82620006a8565b810181811067ffffffffffffffff8211171562000670576200066f62000679565b5b80604052505050565b7f4e487b7100000000000000000000000000000000000000000000000000000000600052604160045260246000fd5b6000601f19601f8301169050919050565b620006c481620005f4565b8114620006d057600080fd5b5056fe60806040523480156200001157600080fd5b5060405162000c2338038062000c23833981810160405281019062000037919062000225565b84600090805190602001906200004f929190620000d5565b508360018190555082600290805190602001906200006f929190620000d5565b50816003908051906020019062000088929190620000d5565b5080600460006101000a81548173ffffffffffffffffffffffffffffffffffffffff021916908373ffffffffffffffffffffffffffffffffffffffff1602179055505050505050620004d4565b828054620000e390620003c5565b90600052602060002090601f01602090048101928262000107576000855562000153565b82601f106200012257805160ff191683800117855562000153565b8280016001018555821562000153579182015b828111156200015257825182559160200191906001019062000135565b5b50905062000162919062000166565b5090565b5b808211156200018157600081600090555060010162000167565b5090565b60006200019c62000196846200031b565b620002f2565b905082815260208101848484011115620001b557600080fd5b620001c28482856200038f565b509392505050565b600081519050620001db81620004a0565b92915050565b600082601f830112620001f357600080fd5b81516200020584826020860162000185565b91505092915050565b6000815190506200021f81620004ba565b92915050565b600080600080600060a086880312156200023e57600080fd5b600086015167ffffffffffffffff8111156200025957600080fd5b6200026788828901620001e1565b95505060206200027a888289016200020e565b945050604086015167ffffffffffffffff8111156200029857600080fd5b620002a688828901620001e1565b935050606086015167ffffffffffffffff811115620002c457600080fd5b620002d288828901620001e1565b9250506080620002e588828901620001ca565b9150509295509295909350565b6000620002fe62000311565b90506200030c8282620003fb565b919050565b6000604051905090565b600067ffffffffffffffff82111562000339576200033862000460565b5b62000344826200048f565b9050602081019050919050565b60006200035e8262000365565b9050919050565b600073ffffffffffffffffffffffffffffffffffffffff82169050919050565b6000819050919050565b60005b83811015620003af57808201518184015260208101905062000392565b83811115620003bf576000848401525b50505050565b60006002820490506001821680620003de57607f821691505b60208210811415620003f557620003f462000431565b5b50919050565b62000406826200048f565b810181811067ffffffffffffffff8211171562000428576200042762000460565b5b80604052505050565b7f4e487b7100000000000000000000000000000000000000000000000000000000600052602260045260246000fd5b7f4e487b7100000000000000000000000000000000000000000000000000000000600052604160045260246000fd5b6000601f19601f8301169050919050565b620004ab8162000351565b8114620004b757600080fd5b50565b620004c58162000385565b8114620004d157600080fd5b50565b61073f80620004e46000396000f3fe6080604052600436106100705760003560e01c80638da5cb5b1161004e5780638da5cb5b146100f65780639632e72014610121578063ed88c68e1461014c578063f3ccaac01461015657610070565b806346c922d11461007557806348b9ef40146100a05780634a79d50c146100cb575b600080fd5b34801561008157600080fd5b5061008a610181565b6040516100979190610501565b60405180910390f35b3480156100ac57600080fd5b506100b561020f565b6040516100c29190610543565b60405180910390f35b3480156100d757600080fd5b506100e0610215565b6040516100ed9190610501565b60405180910390f35b34801561010257600080fd5b5061010b6102a3565b60405161011891906104e6565b60405180910390f35b34801561012d57600080fd5b506101366102c9565b6040516101439190610543565b60405180910390f35b6101546102cf565b005b34801561016257600080fd5b5061016b6103de565b6040516101789190610501565b60405180910390f35b6003805461018e9061063f565b80601f01602080910402602001604051908101604052809291908181526020018280546101ba9061063f565b80156102075780601f106101dc57610100808354040283529160200191610207565b820191906000526020600020905b8154815290600101906020018083116101ea57829003601f168201915b505050505081565b60015481565b600080546102229061063f565b80601f016020809104026020016040519081016040528092919081815260200182805461024e9061063f565b801561029b5780601f106102705761010080835404028352916020019161029b565b820191906000526020600020905b81548152906001019060200180831161027e57829003601f168201915b505050505081565b600460009054906101000a900473ffffffffffffffffffffffffffffffffffffffff1681565b60055481565b60055460015411610315576040517f08c379a000000000000000000000000000000000000000000000000000000000815260040161030c90610523565b60405180910390fd5b600460009054906101000a900473ffffffffffffffffffffffffffffffffffffffff1673ffffffffffffffffffffffffffffffffffffffff166108fc349081150290604051600060405180830381858888f1935050505015801561037d573d6000803e3d6000fd5b503460056000828254610390919061057a565b9250508190555042343373ffffffffffffffffffffffffffffffffffffffff167fe6add99d06d9ad7fc456e746aa162eed6211c5002ef2dacdd67b8d2016822fba60405160405180910390a4565b600280546103eb9061063f565b80601f01602080910402602001604051908101604052809291908181526020018280546104179061063f565b80156104645780601f1061043957610100808354040283529160200191610464565b820191906000526020600020905b81548152906001019060200180831161044757829003601f168201915b505050505081565b610475816105d0565b82525050565b60006104868261055e565b6104908185610569565b93506104a081856020860161060c565b6104a9816106cf565b840191505092915050565b60006104c1601a83610569565b91506104cc826106e0565b602082019050919050565b6104e081610602565b82525050565b60006020820190506104fb600083018461046c565b92915050565b6000602082019050818103600083015261051b818461047b565b905092915050565b6000602082019050818103600083015261053c816104b4565b9050919050565b600060208201905061055860008301846104d7565b92915050565b600081519050919050565b600082825260208201905092915050565b600061058582610602565b915061059083610602565b9250827fffffffffffffffffffffffffffffffffffffffffffffffffffffffffffffffff038211156105c5576105c4610671565b5b828201905092915050565b60006105db826105e2565b9050919050565b600073ffffffffffffffffffffffffffffffffffffffff82169050919050565b6000819050919050565b60005b8381101561062a57808201518184015260208101905061060f565b83811115610639576000848401525b50505050565b6000600282049050600182168061065757607f821691505b6020821081141561066b5761066a6106a0565b5b50919050565b7f4e487b7100000000000000000000000000000000000000000000000000000000600052601160045260246000fd5b7f4e487b7100000000000000000000000000000000000000000000000000000000600052602260045260246000fd5b6000601f19601f8301169050919050565b7f726571756972656420616d6f756e742066756c6c66696c6c656400000000000060008201525056fea26469706673582212203c2fe2b8918a1c440db0fbd640cac115884115f3c7f813d9628781c446882d4964736f6c63430008040033a264697066735822122039cb3d4e935c01324b91773b5de67fabe13edb127362f9fadede5691ef42f56764736f6c63430008040033",
  "linkReferences": {},
  "deployedLinkReferences": {}
}